:0400000043EF00F0DA
:100008001682FACF14F0FBCF15F0F2AC0EEF00F029
:1000180010EF00F03DEF00F0A0A615EF00F017EF8D
:1000280000F02DEF00F0A1A61CEF00F01EEF00F08D
:100038002DEF00F002D82BEF00F00500FA6E0B5000
:10004800FD6E0C50FE6EF850FF6EFA5012003DEF38
:1000580000F09DA632EF00F034EF00F03DEF00F025
:100068009EA639EF00F03BEF00F03DEF00F01EEFE9
:1000780000F015C0FBFF14C0FAFF16921100DCEF68
:0200880008F07E
:10100000000045EC09F011EC09F00009D8B40BEF31
:1010100008F00DEF08F01FEF08F007EC09F00009E9
:10102000D8B415EF08F017EF08F01BEF08F0010E29
:101030000D6E5FEF08F0020E0D6E5FEF08F007EC2B
:1010400009F00009D8B427EF08F029EF08F02DEFD8
:1010500008F0030E0D6E5FEF08F0040E0D6E5FEFEB
:1010600008F0C5EC08F0F3EC08F00009D8B43BEF49
:1010700008F03DEF08F07CEF08F097EC08F07CEF0B
:1010800008F0C5EC08F07CEF08F0F3EC08F000097C
:10109000D8B44DEF08F04FEF08F07CEF08F03DEFCB
:1010A00008F0FDEC08F00009D8B459EF08F05BEF48
:1010B00008F07CEF08F0AEEC08F07CEF08F00D5083
:1010C000126E136A1350000AD8B469EF08F07CEF6F
:1010D00008F01250010AD8B431EF08F0030AD8B46E
:1010E00041EF08F0010AD8B445EF08F0070AD8B478
:1010F00051EF08F07CEF08F043EC09F01200000E0D
:101100008D6E000E8C6E000E896E000E8A6E000EC3
:101110008B6E070E966E92689368FC0E946E9568BF
:101120007E681F0E7F6E000E7C6EF18E12000750DF
:101130000810D8B49EEF08F0A0EF08F0ADEF08F06B
:1011400002D8ADEF08F00500FA6E0750FD6E0850AA
:10115000FE6EF850FF6EFA501200120009500A108D
:10116000D8B4B5EF08F0B7EF08F0C4EF08F002D834
:10117000C4EF08F00500FA6E0950FD6E0A50FE6ECD
:10118000F850FF6EFA501200120005500610D8B445
:10119000CCEF08F0CEEF08F0DBEF08F002D8DBEF81
:1011A00008F00500FA6E0550FD6E0650FE6EF85010
:1011B000FF6EFA501200120000EE01F0100EEE6AFF
:1011C000E806FDE116901692000EF86E0001E9EFB8
:1011D00008F01BEC09F0F28EF28C8B808B92EDEF15
:1011E00008F043EF00F0C7A0F8EF08F0FBEF08F0BD
:1011F000010EFCEF08F0000E1200C7B002EF09F07C
:1012000005EF09F0010E06EF09F0000E1200C7B459
:101210000CEF09F00FEF09F0010E10EF09F0000ECE
:101220001200C7AA16EF09F019EF09F0010E1AEF24
:1012300009F0000E120041EC09F024EC09F07FECFB
:1012400008F02CEC09F01200800EC76E060EC612D4
:10125000000EC56EC69A1200300ED36E000E9B6E45
:101260001200105035EC09F01200116E11C0C9FFC8
:10127000120047EC09F00F6E120047EC09F00E6EF9
:101280001200D09E1200C68812009E961200C9500D
:0212900012004A
:020000040030CA
:0E000000FF021F1EFF8B85FF0FC00FE00F4099
:00000001FF
